:100000000C9446000C94AC000C94AC000C94AC0026
:100010000C94AC000C94AC000C94AC000C94AC00B0
:100020000C94AC000C94AC000C94AC000C94AC00A0
:100030000C94AC000C94AC000C94AC000C947707BE
:100040000C94AC000C94AC000C94AC000C94AC0080
:100050000C94AC000C94AC000C94AC000C94AC0070
:100060000C94AC000C94AC000C94AC000C94AC0060
:100070000C94AC000C94AC000C94AC000C94AC0050
:100080000C94AC000C94AC000C94AC0080EC85BFDC
:10009000AF9AA79AAE9AA69A81EE8093008380E4E5
:1000A0008093018385B78F7785BF80E090E09D9B2B
:1000B00005C0019641F09D9BF8CFFBCF019619F04A
:1000C0009D99F3CFFBCF85B7806885BFAF98A79880
:1000D000AE98A69811241FBECFEFD0E1DEBFCDBFF2
:1000E00011E0A0E0B1E0ECE3F0E100E00BBF02C002
:1000F00007900D92A432B107D9F711E0A4E2B1E064
:1001000001C01D92A335B107E1F78FEF9FE79EBFB6
:100110008DBF8FEF9FE7835591408158914050F0FC
:100120004FEF5EE74355514080E391E063E571E0B6
:100130000E94DE010E94CD050E94A50586E091E0A7
:1001400061EF70E040E050E020E831E00E941106ED
:100150000E9400000C941C080C9400008FEF87BBD9
:1001600018BA80E091E061EE70E040E050E020E0FD
:1001700032E00E94110683E091E061ED70E040E022
:1001800050E020E032E00E9411068EEF0E94D20281
:100190000E944E0368EE73E080E090E00E947004DD
:1001A000F9CF10EC18BB64EF71E080E090E00E94A2
:1001B000700418BA64EF71E080E090E00E9470046F
:1001C000F1CF10E318BB64E670E080E090E00E949D
:1001D000700418BA64E670E080E090E00E94700459
:1001E000F1CF0E944D058BE091E06EEA70E040E0B7
:1001F00050E020E033E00E9411068EEF0E94D20210
:100200000E944E030E949A02209110012F3FC1F3D9
:1002100095B785B7837E822B85BF85B7806285BF02
:10022000889585B78F7D85BF85B79C71837E982B18
:1002300095BFE6CFCF93DF93DC016E5F7F4F6430D5
:10024000710510F464E070E06F5F7F4F6E7FED9199
:10025000FC911197AD01A0E0B0E0C0E0D0E01BC080
:10026000208131812617370780F0109731F08D916A
:100270009C9111972817390740F42617370719F46E
:10028000DF01EA010DC0DF01EA01AF014E5F5F4F00
:100290000280F381E02D309719F79D011097F1F05E
:1002A0008D919C911197861B970B12962D913C91E5
:1002B00013978430910568F0FD01E60FF71F9183D5
:1002C00080833383228311967C936E93F983E88332
:1002D00002C0398328839D012E5F3F4FC901DF9102
:1002E000CF910895CF93DF93EC016115710519F457
:1002F0002DEF3FEF5FC0DB011297E881F9814FC01E
:1003000020813181CF01820F931F8A179B07E9F467
:100310006D917C91620F731F71836083DF01A60F63
:10032000B71F82819381A817B90709F041C08D9149
:100330009C911197680F791F7183608312968D913C
:100340009C9113979383828333C0AE17BF07E0F469
:10035000B983A8834D915C911197CD01840F951FAE
:100360008E179F0761F4240F351F11963C932E932F
:100370008281938113969C938E93129719C0139642
:10038000FC93EE93129714C0A817B90718F42FEF37
:100390003FEF10C0EF0122960280F381E02D3097ED
:1003A00009F0AECF13961C921E921297B983A883C0
:1003B00020E030E0C901DF91CF9108956F5F7F4F5A
:1003C000FB01EE7F61507040640F751F6E1B7F0B49
:1003D0006E7F61937193BF010E9472010895CF9364
:1003E000DF93DC01EB0158967C936E93579715963B
:1003F0001C921E9214970FB6F8940F92E881F9811F
:100400008FEFEF3FF80761F414968D919C9115974B
:10041000019615969C938E931497E0E0F0E015C03A
:10042000309799F00F900FBE52969C91529707C04B
:10043000EF0122960280F381E02D309719F0828936
:100440009817B0F70FB6F8940F921396FC93EE93AB
:100450001297B983A8831296ED91FC911397309768
:1004600091F084819581892B71F014962D913C91A6
:10047000159784819581820F931F15969C938E9377
:100480001497158214820F900FBEDF91CF910895BB
:10049000CF93DF93DC01EB010FB6F8940F92E88164
:1004A000F9810F900FBE8FEFEF3FF80799F534C039
:1004B000EA17FB0751F50FB6F8940F9212968D913B
:1004C0009C9113979983888314968D919C9115978D
:1004D000892B81F01296ED91FC911397309731F0B2
:1004E00014968D919C9115979583848315961C92F3
:1004F0001E9214970F900FBE13961C921E92129785
:1005000058961C921E92579707C0EF0122960280C0
:10051000F381E02D309761F6DF91CF910895FB01D3
:10052000168A158A82E08787CB0164E371E00E9416
:10053000EF010895E0913801F0913901309751F0C1
:100540006389748980E391E00E94720110923901FD
:10055000109238010895CF93DF93C0913201D0916A
:1005600033010E949A024091360150913701E2E333
:10057000F1E00BC028813981C417D50719F4208315
:10058000318305C0FE01C901EC01209799F78091E4
:100590003601909137019093390180933801DF91B2
:1005A000CF9108950F931F93182FE0913601F0918A
:1005B00037010289CF0164E371E00E944802E091B3
:1005C0003601F0913701128B1F3F31F0CF0164E308
:1005D00071E00E94EF0102C00E94AB02E09136017F
:1005E000F09137018091340190913501E817F907B6
:1005F00019F481E0878709C082E087870FB6F894F5
:100600000F920E94D6050F900FBE802F1F910F9161
:100610000895CF93DF93C0913201D091330120C070
:100620000FB6F8940F928C819D810F900FBE892B8D
:10063000A1F0EF89F88D0FB6F8940F928C819D810F
:1006400001979D838C830F900FBE808191818F5F76
:100650009F4F19F0CF010E9455050990D881C02DF8
:100660002097F1F60E94BF04E0913601F091370126
:100670008091340190913501E817F90761F0878581
:10068000813011F482E087870FB6F8940F920E94B0
:10069000D6050F900FBEDF91CF910895E0913601FE
:1006A000F091370182819381892B69F0CF0164E356
:1006B00071E00E944802809136019091370164E315
:1006C00071E00E94EF010E940903089580913C01AE
:1006D00090913D01A0913E01B0913F010196A11D75
:1006E000B11D80933C0190933D01A0933E01B093D6
:1006F0003F010895CF93DF93EC011B821A82E091B2
:100700003A01F0913B0123C0288539854A855B85F4
:1007100080859185A285B385281739074A075B072D
:1007200048F4821B930BA40BB50B80879187A2879B
:10073000B3870FC0281B390B4A0B5B0B28873987FF
:100740004A875B87FB83EA830190F081E02D309735
:10075000D9F6F983E883309711F0D383C283EA8115
:10076000FB81309719F0D183C08304C0D0933B0143
:10077000C0933A01DF91CF910895CF93DF93FC01AD
:1007800014821582168217821586148680859185BB
:10079000A285B3850097A105B10561F1A281B3815E
:1007A00080819181109719F08D939C9304C0909350
:1007B0003B0180933A01C081D1812097A1F08281D1
:1007C00093819B838A8388859985AA85BB852085AB
:1007D000318542855385820F931FA41FB51F8887DB
:1007E0009987AA87BB871086118612861386CF0148
:1007F0000E947A03DF91CF910895AF92BF92CF927A
:10080000DF92EF92FF920F93CF93DF936B017C0106
:10081000EA01590180E391E060E170E00E941A0171
:10082000FC01009781F10FB6F8940F9280913C0182
:1008300090913D01A0913E01B0913F010F900FBEFC
:1008400020912401309125014091260150912701EA
:10085000821B930BA40BB50B8C0D9D1DAE1DBF1DF4
:1008600080879187A287B38700FF05C01482158215
:100870001682178204C0C482D582E682F782D587A9
:10088000C487B786A686CF01DF91CF910F91FF90E5
:10089000EF90DF90CF90BF90AF9008950F93CF93DC
:1008A000DF930E94FD03EC01009711F00E947A0390
:1008B000CE01DF91CF910F910895CF92DF92EF9209
:1008C000FF920F937A0169010E94B106A701960178
:1008D0000E944E040F91FF90EF90DF90CF9008950B
:1008E000AF92BF92CF92DF92EF92FF920F93CF938E
:1008F000DF935B016C01611571058105910599F12B
:10090000C4E3D1E08091360190913701BE010E948D
:100910004802E0903601F090370183E0F7018787C5
:10092000C601B5014FE852E0970101E00E945D0465
:10093000F701968B858B892B19F00E94090315C04E
:10094000E0913601F0913701D08FC78B809134014F
:10095000909135019383828381E08787F0933501FD
:10096000E093340102C00E944E03DF91CF910F91BA
:10097000FF90EF90DF90CF90BF90AF900895EF92EF
:10098000FF920F931F93CF93DF930FB6F8940F92BC
:1009900020913C0130913D0140913E0150913F0139
:1009A0000F900FBE8091240190912501A091260106
:1009B000B091270179018A01E81AF90A0A0B1B0B89
:1009C0002093240130932501409326015093270161
:1009D00051C088859985AA85BB85E816F9060A075E
:1009E0001B0760F48E199F09A00BB10B88879987AC
:1009F000AA87BB87EE24FF24870108C0E81AF90AFA
:100A00000A0B1B0B188619861A861B868885998502
:100A1000AA85BB850097A105B10561F5EC85FD852B
:100A2000309721F06E857F85CE010995E0913A01DE
:100A3000F0913B010190F081E02DF0933B01E093B8
:100A40003A01309711F0138212828C819D81AE8120
:100A5000BF8188879987AA87BB870097A105B105C1
:100A600031F480E391E0BE010E94720103C0CE0127
:100A70000E947A03C0913A01D0913B01209731F056
:100A8000E114F1040105110509F0A3CFDF91CF9125
:100A90001F910F91FF90EF90089586E693E00E94DA
:100AA000DF0687B7826087BF0895CF93DF93DC01AD
:100AB0000FB6F8940F92CD91DC9111970F900FBE65
:100AC0008FEFCF3FD80709F43AC0209771F10FB6E6
:100AD000F8940F92EA81FB811196FC93EE938C813E
:100AE0009D81892B71F0309729F08C819D819583B0
:100AF000848305C08FEF9FEF11969C938E931D8288
:100B00001C820F900FBE8D899E89009721F00E9454
:100B1000BD031E8A1D8A82E08F87CE0164E371E0E7
:100B20000E94EF0121E030E00CC00FB6F8940F9264
:100B30008FEF9FEF11969C938E930F900FBE20E046
:100B400030E0C901DF91CF91089580E090E060E44A
:100B500071E043E150E00E94CA05892B89F480913D
:100B60004001833169F481E491E061E171E042E0A8
:100B700050E00E94F807009719F420E030E008C028
:100B800083E491E064E171E00E9405082FEF3FEFFC
:100B9000C90108950E94A107089508959F918F911A
:100BA0000F900BBE0F900FBE1F9018952F923F9283
:100BB0004F925F926F927F928F929F92AF92BF926D
:100BC000CF92DF92EF92FF920F931F93CF93DF9319
:100BD0008DB79EB7E0913601F0913701918B808BF4
:100BE000E0913401F0913501F0933701E093360143
:100BF00081E08787808991898DBF9EBFDF91CF91EA
:100C00001F910F91FF90EF90DF90CF90BF90AF902A
:100C10009F908F907F906F905F904F903F902F901C
:100C20000895AF92BF92CF92DF92EF92FF920F930F
:100C30001F93CF93DF93F82EE92E6B01B42EA52ED0
:100C4000E901B901675E7F4F80E391E00E941A01DC
:100C5000FC01009719F420E030E077C0C80FD91FDD
:100C6000AE0147505040BE016B5170408E010A5F8B
:100C70001F4F8F2D9E2D9C0188E0D9010D909D0165
:100C8000D8010D928D018150C1F71E8661507040D0
:100C9000798B688B6F5F7F4FFC8BEB8B8FEE9EEBBE
:100CA000ADEABEED80839183A283B3838483958371
:100CB000A683B78380879187A287B3878487958728
:100CC000A687B78780E48A8BFA01D582C68280E83E
:100CD000838312821482B182A0828EEC95E0DB01C4
:100CE00052969C93529753968C9380913201909197
:100CF000330199838883D0933301C093320182E01A
:100D00008F871E8A1D8A188E1F8ACE0164E371E0C8
:100D10000E94EF01E0913601F0913701309721F404
:100D20000FB6F8940F925CCF809134019091350109
:100D3000E817F90749F082E087870FB6F8940F9219
:100D40000E94D6050F900FBE9E01C901DF91CF9181
:100D50001F910F91FF90EF90DF90CF90BF90AF90D9
:100D60000895603020E872072EE3820720E09207A2
:100D700070F028EE33E040E050E00E94D6076AE0D1
:100D8000220F331F441F551F6A95D1F715C02AE063
:100D9000660F771F881F991F2A95D1F769517C4FDD
:100DA0008F4F9F4F28EE33E040E050E00E94D6077F
:100DB000C901DA019C01AD01B901CA010895BC0164
:100DC00087B78D7F87BF80B7886080BF12BE82E003
:100DD00083BF80B790E087709070892BD1F781E056
:100DE00086BF0FB6F8940F9281E090E0A0E0B0E0EB
:100DF000B6B7B170E9F3B6BF0894811D911DA11D6E
:100E0000B6B7B170C9F3BB270F900FBEE7E0880FEC
:100E1000991FAA1FBB1FEA95D1F780932C019093CD
:100E20002D01A0932E01B0932F0187B78D7F87BF2F
:100E300080B7886080BF12BE89E083BF8FE181BF29
:100E400080B790E087709070892BD1F782E086BFE1
:100E50008DE191E040E050E00E94B40708959C01CC
:100E6000FB0147B7427087B78D7F87BF20313105BF
:100E7000D1F0213131053CF42115310581F02130CB
:100E8000310551F40DC02231310569F122313105AE
:100E9000DCF020323105D9F02FEF3FEF1EC040E0EB
:100EA00082E086BF18C006B601FE05C081E090E072
:100EB0009183808302C0118210824423A1F080813B
:100EC000918180689183808320E030E008C08EE0CB
:100ED00090E09183808320E030E0442331F087B7B5
:100EE000826087BF02C020E030E0C90108951F92F0
:100EF0000F920FB60F920BB60F9211242F933F93C0
:100F00004F935F936F937F938F939F93AF93BF9311
:100F1000EF93FF938DE191E00E94A907FF91EF917C
:100F2000BF91AF919F918F917F916F915F914F9101
:100F30003F912F910F900BBE0F900FBE0F901F90FF
:100F400018959C01CB01B9010E940C0880E090E04B
:100F50000895DC011296ED91FC911397309719F0EA
:100F60008D919C9109950895EF92FF920F931F9395
:100F7000CF93DF93EC017B018A01EC81FD813097F7
:100F800019F420E030E006C080E090E060E070E01E
:100F900009959C0119830883FB82EA82C901DF91CC
:100FA000CF911F910F91FF90EF900895A1E21A2E1B
:100FB000AA1BBB1BFD010DC0AA1FBB1FEE1FFF1FFD
:100FC000A217B307E407F50720F0A21BB30BE40B4D
:100FD000F50B661F771F881F991F1A9469F7609594
:100FE0007095809590959B01AC01BD01CF0108954E
:100FF000FB01DC0104C08D910190801921F4415066
:101000005040C8F7881B990B0895FB01DC01019043
:101010000D920020E1F70895DC01CB01FC01E1997C
:10102000FECF06C0FFBBEEBBE09A31960DB20D922B
:0C10300041505040B8F70895F894FFCFED
:10103C0074310074320069646C65006D61696E0016
:10104C00FF4F530065746865726E75740000000084
:04105C00002F07005A
:00000001FF
