:100000000C9458000C94BE000C94BE000C94BE00DE
:100010000C94BE000C94BE000C94BE000C94BE0068
:100020000C94BE000C94BE000C94BE000C94BE0058
:100030000C94BE000C94BE000C94BE000C94790E7F
:100040000C94BE000C94BE000C94BE000C94BE0038
:100050000C94BE000C94BE000C94BE000C94BE0028
:100060000C94BE000C94BE000C94BE000C94BE0018
:100070000C94BE000C94BE000C94BE000C94BE0008
:100080000C94BE000C94BE000C94BE0050726573BC
:100090007320616E79206B65792E2E2E000A4865DB
:1000A0006C6C6F20737472616E676572210A000058
:1000B00080EC85BFAF9AA79AAE9AA69A81EE8093FC
:1000C000008380E48093018385B78F7785BF80E0CC
:1000D00090E09D9B05C0019641F09D9BF8CFFBCF22
:1000E000019619F09D99F3CFFBCF85B7806885BF46
:1000F000AF98A798AE98A69811241FBECFEFD0E175
:10010000DEBFCDBF11E0A0E0B1E0E0E3F0E200E04F
:100110000BBF02C007900D92AA3FB107D9F712E0BA
:10012000AAEFB1E001C01D92AD3BB107E1F78FEF3F
:100130009FE79EBF8DBF8FEF9FE78D5B92408158F9
:10014000914050F04FEF5EE74D5B524088E992E0FE
:100150006DEB72E00E94E4020E94C60C0E9412073E
:1001600081E691E067EF71E040E050E020E831E0A7
:100170000E940A0D0E9400000C9416100C940000BE
:100180008FEF87BB18BA87ED91E060E070E040E048
:100190000E94E70689ED91E060E071E00E94A60709
:1001A00090939702809396020E94A20761E071E00B
:1001B00041E351E00E9437078091960290919702A7
:1001C0000E94A20760915F0170916001FB01DF0155
:1001D0000D900020E9F71197AE1BBF0BAD010E94F7
:1001E000650780919602909197020E94A2076CE8A1
:1001F00070E041E150E00E947E078091960290916C
:1002000097020E94A20760E070E040E050E00E9488
:10021000650780919602909197020E94A2076EEF67
:1002200071E040E850E00E944C0790939502809363
:10023000940280919602909197020E94A2074091A9
:100240009402509195026EEF71E00E94650783E081
:1002500091E065E971E040E050E020E032E00E948A
:100260000A0D86E091E065E871E040E050E020E0B2
:1002700032E00E940A0D89E091E065E771E040E01C
:1002800050E020E032E00E940A0D8CE091E065E64B
:1002900071E040E050E020E032E00E940A0D8FE083
:1002A00091E065EA71E040E050E020E032E00E9439
:1002B0000A0D8EEF0E94D8030E94540468EE73E08A
:1002C00080E090E00E949605F9CF10E118BB64EF42
:1002D00071E080E090E00E94960518BA60E971E054
:1002E00080E090E00E949605F1CF10E218BB64EF29
:1002F00071E080E090E00E94960518BA6CE271E02F
:1003000080E090E00E949605F1CF10E418BB64EF06
:1003100071E080E090E00E94960518BA68EC70E009
:1003200080E090E00E949605F1CF10E818BB64EFE2
:1003300071E080E090E00E94960518BA64E670E0F3
:1003400080E090E00E949605F1CF0EEF11E0C5E24B
:10035000D1E0609196027091970282E191E00E9453
:10036000400880919602909197020E9490074091D8
:100370009602509197028EEF91E060E870E00E9443
:1003800004088EEF91E06AE070E00E94EB0FFC0140
:100390009093930280939202009709F010828091CB
:1003A000FE0160919602709197028823D9F000D0E7
:1003B00000D000D0EDB7FEB73196ADB7BEB71296FC
:1003C0007C936E931197D383C283158304830E9419
:1003D0002F088DB79EB706960FB6F8949EBF0FBE36
:1003E0008DBFB7CF8DE990E00E945B08B2CF0E942D
:1003F000730686E691E060EC70E040E050E020E0BB
:1004000033E00E940A0D8EEF0E94D8030E9454042C
:100410000E94A00320916B012F3FC1F395B785B7D0
:10042000837E822B85BF85B7806285BF889585B71F
:100430008F7D85BF85B79C71837E982B95BFE6CF56
:10044000CF93DF93DC016E5F7F4F6430710510F452
:1004500064E070E06F5F7F4F6E7FED91FC911197CC
:10046000AD01A0E0B0E0C0E0D0E01BC02081318150
:100470002617370780F0109731F08D919C911197D6
:100480002817390740F42617370719F4DF01EA0166
:100490000DC0DF01EA01AF014E5F5F4F0280F381C3
:1004A000E02D309719F79D011097F1F08D919C91F7
:1004B0001197861B970B12962D913C9113978430C0
:1004C000910568F0FD01E60FF71F91838083338368
:1004D000228311967C936E93F983E88302C039835B
:1004E00028839D012E5F3F4FC901DF91CF91089571
:1004F000CF93DF93EC016115710519F42DEF3FEFF8
:100500005FC0DB011297E881F9814FC02081318102
:10051000CF01820F931F8A179B07E9F46D917C919D
:10052000620F731F71836083DF01A60FB71F828183
:100530009381A817B90709F041C08D919C9111973B
:10054000680F791F7183608312968D919C91139728
:100550009383828333C0AE17BF07E0F4B983A883C7
:100560004D915C911197CD01840F951F8E179F07B8
:1005700061F4240F351F11963C932E938281938151
:1005800013969C938E93129719C01396FC93EE9337
:10059000129714C0A817B90718F42FEF3FEF10C037
:1005A000EF0122960280F381E02D309709F0AECF63
:1005B00013961C921E921297B983A88320E030E014
:1005C000C901DF91CF9108956F5F7F4FFB01EE7FEF
:1005D00061507040640F751F6E1B7F0B6E7F6193BF
:1005E0007193BF010E9478020895CF93DF93DC01DD
:1005F000EB0158967C936E93579715961C921E921A
:1006000014970FB6F8940F92E881F9818FEFEF3FBE
:10061000F80761F414968D919C91159701961596A3
:100620009C938E931497E0E0F0E015C0309799F01A
:100630000F900FBE52969C91529707C0EF012296E1
:100640000280F381E02D309719F082899817B0F776
:100650000FB6F8940F921396FC93EE931297B9830A
:10066000A8831296ED91FC911397309791F08481B5
:100670009581892B71F014962D913C911597848169
:100680009581820F931F15969C938E9314971582D4
:1006900014820F900FBEDF91CF910895CF93DF9317
:1006A000DC01EB010FB6F8940F92E881F9810F900D
:1006B0000FBE8FEFEF3FF80799F534C0EA17FB073D
:1006C00051F50FB6F8940F9212968D919C91139755
:1006D0009983888314968D919C911597892B81F02D
:1006E0001296ED91FC911397309731F014968D91FD
:1006F0009C9115979583848315961C921E9214974E
:100700000F900FBE13961C921E92129758961C9231
:100710001E92579707C0EF0122960280F381E02DC9
:10072000309761F6DF91CF910895FB01168A158A03
:1007300082E08787CB016CE972E00E94F5020895A0
:10074000E091A002F091A102309751F06389748981
:1007500088E992E00E9478021092A1021092A00211
:100760000895CF93DF93C0919A02D0919B020E948B
:10077000A00340919E0250919F02EAE9F2E00BC073
:1007800028813981C417D50719F42083318305C026
:10079000FE01C901EC01209799F780919E0290918A
:1007A0009F029093A1028093A002DF91CF910895C0
:1007B0000F931F93182FE0919E02F0919F020289E0
:1007C000CF016CE972E00E944E03E0919E02F0912D
:1007D0009F02128B1F3F31F0CF016CE972E00E9443
:1007E000F50202C00E94B103E0919E02F0919F02C7
:1007F00080919C0290919D02E817F90719F481E01D
:10080000878709C082E087870FB6F8940F920E940D
:10081000CF0C0F900FBE802F1F910F910895CF9393
:10082000DF93C0919A02D0919B0220C00FB6F8943A
:100830000F928C819D810F900FBE892BA1F0EF89C3
:10084000F88D0FB6F8940F928C819D8101979D834E
:100850008C830F900FBE808191818F5F9F4F19F025
:10086000CF010E947B060990D881C02D2097F1F618
:100870000E94E505E0919E02F0919F0280919C020A
:1008800090919D02E817F90761F08785813011F496
:1008900082E087870FB6F8940F920E94CF0C0F90DA
:1008A0000FBEDF91CF910895E0919E02F0919F02DB
:1008B00082819381892B69F0CF016CE972E00E94FB
:1008C0004E0380919E0290919F026CE972E00E941B
:1008D000F5020E940F0408958091A4029091A50250
:1008E000A091A602B091A7020196A11DB11D80930F
:1008F000A4029093A502A093A602B093A702089524
:10090000CF93DF93EC011B821A82E091A202F09157
:10091000A30223C0288539854A855B85808591851A
:10092000A285B385281739074A075B0748F4821B5D
:10093000930BA40BB50B80879187A287B3870FC059
:10094000281B390B4A0B5B0B288739874A875B8743
:10095000FB83EA830190F081E02D3097D9F6F9838B
:10096000E883309711F0D383C283EA81FB8130970B
:1009700019F0D183C08304C0D093A302C093A20214
:10098000DF91CF910895CF93DF93FC0114821582FC
:10099000168217821586148680859185A285B38577
:1009A0000097A105B10561F1A281B3818081918198
:1009B000109719F08D939C9304C09093A302809399
:1009C000A202C081D1812097A1F0828193819B8373
:1009D0008A8388859985AA85BB852085318542854E
:1009E0005385820F931FA41FB51F88879987AA87F5
:1009F000BB871086118612861386CF010E94800461
:100A0000DF91CF910895609182027091830280916D
:100A1000840290918502611571058105910569F443
:100A200080E090E00E94AA0D90686093820270932B
:100A3000830280938402909385029B01AC015F77CF
:100A4000B901CA010895AF92BF92CF92DF92EF929F
:100A5000FF920F93CF93DF936B017C01EA01590161
:100A600088E992E060E170E00E942002FC010097BA
:100A700081F10FB6F8940F928091A4029091A50293
:100A8000A091A602B091A7020F900FBE20917E0206
:100A900030917F024091800250918102821B930B22
:100AA000A40BB50B8C0D9D1DAE1DBF1D80879187BE
:100AB000A287B38700FF05C01482158216821782B1
:100AC00004C0C482D582E682F782D587C487B78600
:100AD000A686CF01DF91CF910F91FF90EF90DF902D
:100AE000CF90BF90AF9008950F93CF93DF930E9464
:100AF0002305EC01009711F00E948004CE01DF91E4
:100B0000CF910F910895CF92DF92EF92FF920F93C2
:100B10007A0169010E94B30DA70196010E94740534
:100B20000F91FF90EF90DF90CF900895AF92BF921A
:100B3000CF92DF92EF92FF920F93CF93DF935B01FF
:100B40006C01611571058105910599F1CCE9D2E03F
:100B500080919E0290919F02BE010E944E03E09000
:100B60009E02F0909F0283E0F7018787C601B501DE
:100B700045E953E0970101E00E948305F701968B58
:100B8000858B892B19F00E940F0415C0E0919E02FD
:100B9000F0919F02D08FC78B80919C0290919D0213
:100BA0009383828381E08787F0939D02E0939C0288
:100BB00002C00E945404DF91CF910F91FF90EF90FB
:100BC000DF90CF90BF90AF900895EF92FF920F9378
:100BD0001F93CF93DF930FB6F8940F922091A40246
:100BE0003091A5024091A6025091A7020F900FBE2E
:100BF00080917E0290917F02A0918002B09181024B
:100C000079018A01E81AF90A0A0B1B0B20937E026C
:100C100030937F02409380025093810251C08885B7
:100C20009985AA85BB85E816F9060A071B0760F4B3
:100C30008E199F09A00BB10B88879987AA87BB875C
:100C4000EE24FF24870108C0E81AF90A0A0B1B0BDF
:100C5000188619861A861B8688859985AA85BB857C
:100C60000097A105B10561F5EC85FD85309721F070
:100C70006E857F85CE010995E091A202F091A302D5
:100C80000190F081E02DF093A302E093A20230974F
:100C900011F0138212828C819D81AE81BF81888781
:100CA0009987AA87BB870097A105B10531F488E928
:100CB00092E0BE010E94780203C0CE010E9480042F
:100CC000C091A202D091A302209731F0E114F10467
:100CD0000105110509F0A3CFDF91CF911F910F916D
:100CE000FF90EF9008958CE694E00E94E10D87B7A5
:100CF000826087BF0895CF93DF93DC010FB6F8942D
:100D00000F92CD91DC9111970F900FBE8FEFCF3FD7
:100D1000D80709F43AC0209771F10FB6F8940F92F2
:100D2000EA81FB811196FC93EE938C819D81892B46
:100D300071F0309729F08C819D819583848305C063
:100D40008FEF9FEF11969C938E931D821C820F90C4
:100D50000FBE8D899E89009721F00E94C3041E8AD0
:100D60001D8A82E08F87CE016CE972E00E94F50255
:100D700021E030E00CC00FB6F8940F928FEF9FEF98
:100D800011969C938E930F900FBE20E030E0C90126
:100D9000DF91CF9108950F931F93CF93DF938C0131
:100DA000C0918602D09187020AC0CE010296B80196
:100DB0000E94F60F009729F00990D881C02D209746
:100DC000A1F7CE01DF91CF911F910F910895CF939D
:100DD000DF93EC016115710511F07D876C8741117E
:100DE0004E87CE0102960E94CB06892BA9F4EB898F
:100DF000FC89309721F0CE010995892B69F4809107
:100E000086029091870299838883D0938702C0934A
:100E1000860220E030E002C02FEF3FEFC901DF91F2
:100E2000CF91089580E090E068EA72E043E150E0FD
:100E30000E94C30C892B89F48091A802833169F444
:100E400089EA92E06CE671E042E050E00E94DE0F39
:100E5000009719F420E030E008C08BEA92E06FE6DA
:100E600071E00E94FF0F2FEF3FEFC9010895CF936C
:100E7000DF93DC011296CD91DC911397209729F432
:100E80001B96ED91FC911C9703C0ED89FE89CE0164
:100E90000995DF91CF910895DC011296ED91FC91B7
:100EA0001397309729F41596ED91FC91169708C089
:100EB0000788F08DE02D309719F42FEF3FEF03C036
:100EC000CD0109959C01C9010895DC011296ED91AF
:100ED000FC911397309729F41796ED91FC91189790
:100EE00008C0018CF28DE02D309719F42FEF3FEF01
:100EF00003C0CD0109959C01C9010895DC0112963A
:100F0000ED91FC911397309731F41996ED91FC9186
:100F10001A9709950895038CF48DE02D099508958D
:100F2000FC018081918160E070E040E050E00E942F
:100F30006507892B19F420E030E002C02FEF3FEF66
:100F4000C9010895FC01808191810895CF92DF92BB
:100F5000EF92FF920F931F93CF93DF936C01CB011E
:100F60000E945B0C7C012FEF8F3F920709F440C079
:100F7000EEE7F1E003E010E00DC00F5F1F4F329687
:100F80000830110539F487E190E09093BC0280931A
:100F9000BB022EC080819181892B79F787E090E098
:100FA0000E947508EC01000F111F08581E4FD80150
:100FB000CD93DC932097E1F0C601B7010E9485082C
:100FC00099838883D801ED91FC918F5F9F4F39F40D
:100FD000CF010E946F08F8011182108209C0F382CC
:100FE000E2821482D801ED91FC911682158202C032
:100FF000E0E0F0E0CF01DF91CF911F910F91FF90E2
:10100000EF90DF90CF900895CF92DF92EF92FF9212
:101010000F931F93CF93DF937C016A018B01E7014C
:1010200010C0C6010E948F0C2FEF8F3F920721F452
:101030001882EE24FF2409C08993015010400A97BA
:1010400019F0023011056CF71882C701DF91CF91BA
:101050001F910F91FF90EF90DF90CF900895DF9355
:10106000CF93CDB7DEB79E01275F3F4F8D819E8125
:101070006F817885A9010E945008CF91DF91089572
:101080009C01D9010D900020E9F71197A21BB30B29
:10109000FB0180819181B901AD010E94650708952E
:1010A000FC01DB019A016081718185E697E0AD0169
:1010B0000E940C090895EF92FF920F931F938C01E9
:1010C0007B010E94C80FAC01F70180819181B801BA
:1010D0000E947E071F910F91FF90EF900895BC0131
:1010E00088E992E00E9478020895BC0188E992E0C4
:1010F0000E9420029C01009731F48CE090E09093D4
:10110000BC028093BB02C9010895DF92EF92FF9267
:101110000F931F93DF93CF93CDB7DEB729970FB609
:10112000F894DEBF0FBECDBFD82E7B01FE013196F5
:10113000282F392F8901AE01475F5F4F03C081938C
:101140000F5F1F4F202F2D19D8018C91882329F074
:101150008A3319F0E417F50791F7CE010196FC01E7
:10116000E20FF11D10820E94CB06DC01009749F4CA
:1011700082E090E09093BC028093BB022FEF3FEFA0
:1011800014C0F80180818A3319F060E070E003C078
:10119000B8016F5F7F4F5D96ED91FC915E97CD0139
:1011A000A70120E030E009959C01C90129960FB6FE
:1011B000F894DEBF0FBECDBFCF91DF911F910F918D
:1011C000FF90EF90DF900895CF92DF92EF92FF9221
:1011D0000F931F93CF93DF936C018B017A01E90189
:1011E00007C0C801B70140E150E0F60109956097DA
:1011F000C131D105B4F71C161D062CF4C801B70186
:10120000AE01F6010995DF91CF911F910F91FF90EB
:10121000EF90DF90CF9008952F923F924F925F9280
:101220006F927F928F929F92AF92BF92CF92DF92F6
:10123000EF92FF920F931F93DF93CF93CDB7DEB75B
:101240006D970FB6F894DEBF0FBECDBF998F888F14
:101250007B8F6A8F1A0149011D8A1C8A9E012E5EAE
:101260003F4F3D8F2C8FB10103C00894211C311CCE
:10127000D101FC90FF2019F0B5E2FB16B1F7810116
:10128000061B170B61F08A8D9B8DA801E88DF98DE7
:1012900009952C893D89200F311F3D8B2C8BFF2018
:1012A00009F4EEC20894211C311C19821E8A4424C0
:1012B000552466246A94762CD101BD901D01B0E2BC
:1012C000BB1621F489818823B9F703C0EBE2BE166F
:1012D00011F4B982F1CFFDE2BF1621F42E8924600A
:1012E0002E8BEACF33E2B31621F44E8941604E8B48
:1012F000E3CF80E3B81621F49E8990619E8BDCCF0A
:10130000ACE6BA1621F4BE89B860BE8BD5CFEAE749
:10131000BE1691F2FAE2BF1681F4C4010296D4011E
:101320004D905C9057FE07C0BE89B460BE8B509450
:101330004194510853944C01BFCFEEE2BE1691F593
:10134000D1018C918A3219F06624772422C0089446
:10135000211C311CF4016080718022E030E0820E9B
:10136000931E1DC0C301E3E0880F991FEA95E1F7C2
:10137000660C771C860D971D622E772467FC70948F
:10138000A0EDBFEF6A0E7B1E680E791E0894211C2B
:10139000311CF1012081822F80538A3018F377FEAF
:1013A0008BCF87CF8B2D8153893028F54B2C55243B
:1013B00020ED3FEF420E531E17C0C20163E0880FBD
:1013C000991F6A95E1F7440C551C840D951D422E1A
:1013D000552447FC5094A0EDBFEF4A0E5B1E480E0B
:1013E000591E0894211C311CF1012081822F805349
:1013F0008A3018F361CFF401BF8A27E62B15E8F095
:1014000035E6B31608F0B0C140E5B416C1F14B158E
:1014100048F085E4B81609F4A7C197E4B91609F0B5
:10142000A7C1A2C1A3E6BA1611F1AB1508F475C0A5
:10143000B8E5BB1609F09CC138C120E7B21609F423
:1014400034C12B1548F039E6B31609F466C04FE6EF
:10145000B41609F08DC1D9C08F89853709F45CC0F5
:10146000883709F422C1833709F082C128C0A2E07D
:10147000B0E08A0E9B1E80818A8319827FC122E0A0
:1014800030E0820E931EE080F180E114F10439F423
:1014900048E8C42E41E0D42E33E73F8B1DC0C7017E
:1014A0000E94C80F01960E947508182F092FB701D6
:1014B0000E94C10F212F302FC9016C0106C082E0AC
:1014C00090E0880E991EC080D180C114D10421F40F
:1014D00038E8C32E31E0D32E77FC0FC0C60160E0A0
:1014E00070E0A3010E94D10F009789F08C010C19C4
:1014F0001D09601671065CF00BC0D6010D9000202E
:10150000E9F78D01015010400C191D0901C083013C
:101510001982EE24FF243BC11982BE89B3FF09C0A2
:1015200024E030E0820E931EE080F180028113817E
:1015300013C0C4010296D4012D913C91B5E7BB16AE
:1015400029F44C01790100E010E015C04C0179014B
:101550000027F7FC0095102FE5E7BE1661F017FF96
:101560000AC010950095F094E094E11CF11C011D57
:10157000111DFDE2F98377FC03C02E892F7E2E8B8F
:10158000E114F1040105110549F46114710461F4D9
:1015900022E1C22ED12CCC0EDD1E31C03AE0E31682
:1015A000F1040105110548F491E1C92ED12CCC0EAE
:1015B000DD1E8E2D805D898B22C082E1C82ED12C4C
:1015C000CC0EDD1EC801B7012AE030E040E050E05B
:1015D0000E949F0F605DD6016E936D01C801B70137
:1015E0002AE030E040E050E00E949F0FC901DA019C
:1015F0007C018D01E114F1040105110519F70C8D31
:101600001D8D0C191D09BF8AADC0BE89B3FF09C06D
:1016100024E030E0820E931E60817181828193818B
:1016200009C082E090E0880E991E80819181BC0102
:1016300080E090E0198277FC03C0AE89AF7EAE8B6C
:10164000611571058105910549F46114710431F446
:10165000B2E1CB2ED12CCC0EDD1E20C0A2E1CA2ED1
:10166000D12CCC0EDD1E262F2770205DF601229393
:101670006F01F3E09695879577956795FA95D1F781
:10168000611571058105910571F7FE89F0FF06C0AE
:10169000203321F0D601E0E3EE936D010C8D1D8D1A
:1016A0000C191D09FFE6FF8B5DC020E7B21679F427
:1016B00082E090E0880E991E808191819C0140E03B
:1016C00050E09E8991609E8BA8E7AF8B16C0BE89C3
:1016D000B3FF09C024E030E0820E931E20813181E7
:1016E0004281538109C082E090E0880E991E80817A
:1016F00091819C0140E050E0BF8A77FC03C09E8945
:101700009F7E9E8BAF89A83519F06FE871E002C00B
:1017100060EA71E01982E2E1CE2ED12CCC0EDD1E02
:10172000F901EF70F070E60FF71F8081F6018293E8
:101730006F0194E056954795379527959A95D1F77F
:10174000211531054105510559F7FE89F0FF06C005
:10175000D601EF89EE93E0E3EE936D010C8D1D8DC4
:101760000C191D09730113C024E030E0820E931E92
:10177000BB2009F485C0BA821982BF8A82E0C82ED4
:10178000D12CCC0EDD1EEE24FF2401E010E0580128
:101790000E151F050CF457018981882319F0089450
:1017A000A11CB11C9E89892F90E09B8B8A8B3C01E8
:1017B000A4E16A2277246114710459F492012A1970
:1017C0003B09888D998D6A8D7B8D41EB51E00E949C
:1017D000E4088981882351F08A8D9B8DBE016F5F5B
:1017E0007F4F41E050E0E88DF98D0995F0E16F16EB
:1017F000710459F492012A193B09888D998D6A8DDB
:101800007B8D41EC51E00E94E408E01AF10A888DDA
:10181000998D6A8D7B8D41EC51E097010E94E4081F
:101820000115110541F08A8D9B8DB601A801288D07
:10183000398DF90109953F89303519F4C6010E94A7
:101840006F084A8942FF0BC092012A193B09888D13
:10185000998D6A8D7B8D41EB51E00E94E4084A141A
:101860005B043CF08C899D89840D951D9D8B8C8B30
:10187000FACCAC89BD89AA0DBB1DBD8BAC8BF3CC5A
:101880008C899D896D960FB6F894DEBF0FBECDBFD3
:10189000CF91DF911F910F91FF90EF90DF90CF904C
:1018A000BF90AF909F908F907F906F905F904F9080
:1018B0003F902F900895FC018081823751F0873747
:1018C00019F08136C9F40AC081E093E042E053E0A8
:1018D00009C080E090E042E050E004C089E091E07F
:1018E0004AE051E060E070E411C02B3271F0223622
:1018F00019F460E070E80AC086E190E09093BC02C1
:101900008093BB022FEF3FEF08C0CA0131962081C0
:10191000222359F79C01262B372BC90108950F93D9
:101920001F93DF93CF930F92CDB7DEB78C01FC01ED
:10193000848183FF05C0877F8483258136811CC015
:10194000F80180819181BE016F5F7F4F41E050E0DF
:101950000E944C078130910561F0F8012481892BA8
:1019600011F0206102C02062F80124832FEF3FEFC5
:1019700003C08981282F30E0C9010F90CF91DF91FA
:101980001F910F9108950E946A0F089508959F91E5
:101990008F910F900BBE0F900FBE1F9018952F9236
:1019A0003F924F925F926F927F928F929F92AF92EF
:1019B000BF92CF92DF92EF92FF920F931F93CF933C
:1019C000DF938DB79EB7E0919E02F0919F02918BBD
:1019D000808BE0919C02F0919D02F0939F02E09336
:1019E0009E0281E08787808991898DBF9EBFDF91AC
:1019F000CF911F910F91FF90EF90DF90CF90BF900C
:101A0000AF909F908F907F906F905F904F903F909E
:101A10002F900895AF92BF92CF92DF92EF92FF92F4
:101A20000F931F93CF93DF93F82EE92E6B01B42E03
:101A3000A52EE901B901675E7F4F88E992E00E9417
:101A40002002FC01009719F420E030E077C0C80FB5
:101A5000D91FAE0147505040BE016B5170408E01FE
:101A60000A5F1F4F8F2D9E2D9C0188E0D9010D909C
:101A70009D01D8010D928D018150C1F71E866150E4
:101A80007040798B688B6F5F7F4FFC8BEB8B8FEE99
:101A90009EEBADEABEED80839183A283B383848302
:101AA0009583A683B78380879187A287B38784872E
:101AB0009587A687B78780E48A8BFA01D582C6828C
:101AC00080E8838312821482B182A08287EC9CE03A
:101AD000DB0152969C93529753968C9380919A0275
:101AE00090919B0299838883D0939B02C0939A0222
:101AF00082E08F871E8A1D8A188E1F8ACE016CE9AC
:101B000072E00E94F502E0919E02F0919F023097F0
:101B100021F40FB6F8940F925CCF80919C029091C3
:101B20009D02E817F90749F082E087870FB6F8941D
:101B30000F920E94CF0C0F900FBE9E01C901DF9142
:101B4000CF911F910F91FF90EF90DF90CF90BF90BA
:101B5000AF900895609188027091890280918A0205
:101B600090918B020895603020E872072EE382077F
:101B700020E0920770F028EE33E040E050E00E9451
:101B80009F0F6AE0220F331F441F551F6A95D1F73C
:101B900015C02AE0660F771F881F991F2A95D1F775
:101BA00069517C4F8F4F9F4F28EE33E040E050E06B
:101BB0000E949F0FC901DA019C01AD01B901CA0160
:101BC0000895BC0187B78D7F87BF80B7886080BFCD
:101BD00012BE82E083BF80B790E087709070892B3F
:101BE000D1F781E086BF0FB6F8940F9281E090E0C4
:101BF000A0E0B0E0B6B7B170E9F3B6BF0894811DBC
:101C0000911DA11DB6B7B170C9F3BB270F900FBED0
:101C1000E7E0880F991FAA1FBB1FEA95D1F78093B1
:101C2000880290938902A0938A02B0938B0287B7AF
:101C30008D7F87BF80B7886080BF12BE89E083BF79
:101C40008FE181BF80B790E087709070892BD1F7CA
:101C500082E086BF81ED91E040E050E00E947D0F80
:101C600008959C01FB0147B7427087B78D7F87BFFE
:101C700020313105D1F0213131053CF421153105F8
:101C800081F02130310551F40DC02231310569F167
:101C900022313105DCF020323105D9F02FEF3FEF52
:101CA0001EC040E082E086BF18C006B601FE05C037
:101CB00081E090E09183808302C0118210824423EE
:101CC000A1F08081918180689183808320E030E061
:101CD00008C08EE090E09183808320E030E04423D0
:101CE00031F087B7826087BF02C020E030E0C901D1
:101CF00008951F920F920FB60F920BB60F921124F8
:101D00002F933F934F935F936F937F938F939F9303
:101D1000AF93BF93EF93FF9381ED91E00E94720F19
:101D2000FF91EF91BF91AF919F918F917F916F91B3
:101D30005F914F913F912F910F900BBE0F900FBE6F
:101D40000F901F901895FB01CA013DE00AC0208149
:101D50002A3019F45D9BFECF3CB95D9BFECF3196D6
:101D60002CB901972FEF8F3F920789F7CA01089589
:101D70009A01FB019DE00AC084918A3019F45D9BB1
:101D8000FECF9CB95D9BFECF8CB93196215030407F
:101D90008FEF2F3F380781F7CA0108952BB1332702
:101DA00027FD3095432F532F222757FD23953327A7
:101DB00044275527B901CA01089510928D02109247
:101DC0008C0290938F0280938E0210929102109257
:101DD00090028CE892E0089580E090E00895EF9200
:101DE000FF920F931F937B018C010E940305660FE6
:101DF000771F881F991F24E0EE0CFF1C001F111F86
:101E00002A95D1F7A80197010E949F0F2F5F3F4F9E
:101E10004F4F5F4F5695479537952795215029B9D4
:101E20001F910F91FF90EF900895FA01615071405A
:101E300019F02FEF3FEF08C060817181828193819B
:101E40000E94EF0E20E030E0C901089588E18AB9D0
:101E500060E072EC81E090E00E94EF0E80E090E0A4
:101E60000895DF92EF92FF920F931F93CF93DF932A
:101E70007A01EB0100E010E04AE0D42E1FC061E0DF
:101E800070E080E090E00E9496050115110511F4C4
:101E9000209711F45F9B15C05F9BF1CF8CB1209709
:101EA00059F090E09E012F5F3F4F8D30910511F466
:101EB000D88201C08883E9010F5F1F4F0E151F05EF
:101EC0005CF3C801DF91CF911F910F91FF90EF90CC
:101ED000DF9008959C01CB01B9010E94061080E0BB
:101EE00090E00895DC011296ED91FC9113973097E4
:101EF00019F08D919C9109950895EF92FF920F939F
:101F00001F93CF93DF93EC017B018A01EC81FD816C
:101F1000309719F420E030E006C080E090E060E007
:101F200070E009959C0119830883FB82EA82C9014C
:101F3000DF91CF911F910F91FF90EF900895A1E253
:101F40001A2EAA1BBB1BFD010DC0AA1FBB1FEE1F33
:101F5000FF1FA217B307E407F50720F0A21BB30B7E
:101F6000E40BF50B661F771F881F991F1A9469F7FA
:101F700060957095809590959B01AC01BD01CF0156
:101F80000895FB01DC0105900D920020E1F7089512
:101F9000FC0105900020E9F7809590958E0F9F1F1A
:101FA0000895FC014150504030F001900616D1F7E1
:101FB0003197CF010895882799270895FB01DC0107
:101FC00004C08D910190801921F441505040C8F710
:101FD000881B990B0895FC018191861721F08823B5
:101FE000D9F7992708953197CF010895FB01DC01B6
:101FF0008D91019080190110D9F3990B0895FB017F
:10200000DC0101900D920020E1F70895DC01CB0185
:10201000FC01E199FECF06C0FFBBEEBBE09A319612
:102020000DB20D9241505040B8F70895F894FFCF8B
:10203000722B0074310074320074330074340074F5
:1020400035000A456E74657220796F7572206E6175
:102050006D653A20000A48656C6C6F202573210A73
:102060000000C201000A4E75742F4F532055415293
:10207000542053616D706C652041707220203420B3
:10208000323032332031323A30313A33360A003589
:102090000169646C65006D61696E00FF4F530065F6
:1020A000746865726E757400010002000300000020
:1020B0000000000000000000286E756C6C290030E4
:1020C00031323334353637383961626364656600DE
:1020D000303132333435363738394142434445465E
:1020E0000020202020202020202020202020202010
:1020F00020303030303030303030303030303030F0
:102100003000000000310E00007561727430000074
:1021100000000000000000000000260F150F310F26
:0A212000A30EB80EDD0EEC0ECE0E7D
:00000001FF
